:020000040000FA
:0400000099EF3CF048
:10792D0001000000012D0EF66E790EF76E000EF8B7
:10793D006E00EE0CF010EE05F00900F5CFEEFFE550
:10794D0050E150FAE1000EF86E0001AEEF3CF00090
:10795D000E956E000E8C6E938E939CF19E81BEBA29
:10796D00EF3CF0BCEF3CF0E1EF3CF0820E0A6EDE36
:10797D000EE82EFED70A2EFCD7102A050E1018D8A9
:10798D00A4CBEF3CF0CDEF3CF0E1EF3CF0010E105D
:10799D006EE1EF3CF000EC3DF0B5EF3CF062EC3EFB
:1079AD00F0B5EF3CF0B1EC3DF0B5EF3CF027EC3F1E
:1079BD00F0B5EF3CF010500A6E0B6A0B50000AD870
:1079CD00B4EBEF3CF0B5EF3CF00A50010AD8B4D15E
:1079DD00EF3CF0030AD8B4D5EF3CF0010AD8B4D986
:1079ED00EF3CF0070AD8B4DDEF3CF0B5EF3CF0000A
:1079FD00EF00F0000E046E000E036E04BE10EF3D9E
:107A0D00F0045009E1080E035CD8A010EF3DF01210
:107A1D00EF3DF014EF3DF0B0EF3DF003C001F0018C
:107A2D000E026E012A1DEF3DF0D8900236012E1B7D
:107A3D00EF3DF002508C6E0C040D100E100F10D88F
:107A4D00A42BEF3DF02DEF3DF036EF3DF0820E0112
:107A5D006EDE0EE82EFED7012EFCD784EF3DF00230
:107A6D000E0C180D100E100F10D8A440EF3DF04263
:107A7D00EF3DF050EF3DF0020E026E040E016EBAB6
:107A8D000EE82EFED7012EFCD7022EFAD700D08499
:107A9D00EF3DF0030E0C180D100E100F10D8A45A58
:107AAD00EF3DF05CEF3DF06AEF3DF0030E026E0826
:107ABD000E016E770EE82EFED7012EFCD7022EFAA0
:107ACD00D700F084EF3DF0040E0C180D100E100FC2
:107ADD0010D8A474EF3DF076EF3DF084EF3DF00546
:107AED000E026E0F0E016EF10EE82EFED7012EFC6A
:107AFD00D7022EFAD700F084EF3DF081BC89EF3D1F
:107B0D00F08BEF3DF0ACEF3DF0820E016EDE0EE836
:107B1D002EFED7012EFCD7010E0C26000E0D220EC7
:107B2D00220F22050E0C180D100E100F10D8A4A246
:107B3D00EF3DF0A4EF3DF0ACEF3DF0010E0C6E000B
:107B4D000E0D6E000E0E6E000E0F6E034A042A040B
:107B5D00EF3DF01200000E046E000E036E04BEC168
:107B6D00EF3DF0045009E1090E035CD8A0C1EF3DD3
:107B7D00F0C3EF3DF0C5EF3DF061EF3EF003C00106
:107B8D00F0010E026E012ACEEF3DF0D890023601C3
:107B9D002ECCEF3DF002048C6E0C040D100E100F68
:107BAD0010D8A4DCEF3DF0DEEF3DF0E7EF3DF082C5
:107BBD000E016EDE0EE82EFED7012EFCD735EF3E00
:107BCD00F0020E0C180D100E100F10D8A4F1EF3D91
:107BDD00F0F3EF3DF001EF3EF0020E026E040E01E8
:107BED006EBA0EE82EFED7012EFCD7022EFAD70064
:107BFD00D035EF3EF0030E0C180D100E100F10D8EF
:107C0D00A40BEF3EF00DEF3EF01BEF3EF0030E0226
:107C1D006E080E016E770EE82EFED7012EFCD702F0
:107C2D002EFAD700F035EF3EF0040E0C180D100EA5
:107C3D00100F10D8A425EF3EF027EF3EF035EF3EA4
:107C4D00F0050E026E0F0E016EF10EE82EFED7013D
:107C5D002EFCD7022EFAD700F035EF3EF081BC3A5C
:107C6D00EF3EF03CEF3EF05DEF3EF0820E016EDE3A
:107C7D000EE82EFED7012EFCD7010E0C26000E0DA0
:107C8D00220E220F22050E0C180D100E100F10D8FB
:107C9D00A453EF3EF055EF3EF05DEF3EF0010E0CBC
:107CAD006E000E0D6E000E0E6E000E0F6E034A046A
:107CBD002AB5EF3DF01200000E086E000E076E00A3
:107CCD000E066E070E056E08BE76EF3EF0085009E3
:107CDD00E1080E075CD8A076EF3EF078EF3EF07A23
:107CED00EF3EF026EF3FF005C001F0010E026E01F0
:107CFD002A83EF3EF0D8900236012E81EF3EF00739
:107D0D00C003F0010E046E032A8FEF3EF0D89004ED
:107D1D0036032E8DEF3EF0045002248C6E0C040DB4
:107D2D00100E100F10D8A49EEF3EF0A0EF3EF0A95C
:107D3D00EF3EF0820E016EDE0EE82EFED7012EFC18
:107D4D00D7F7EF3EF0020E0C180D100E100F10D8D5
:107D5D00A4B3EF3EF0B5EF3EF0C3EF3EF0020E02DE
:107D6D006E040E016EBA0EE82EFED7012EFCD70260
:107D7D002EFAD700D0F7EF3EF0030E0C180D100EB3
:107D8D00100F10D8A4CDEF3EF0CFEF3EF0DDEF3E5B
:107D9D00F0030E026E080E016E770EE82EFED7016F
:107DAD002EFCD7022EFAD700F0F7EF3EF0040E0CA2
:107DBD00180D100E100F10D8A4E7EF3EF0E9EF3EAE
:107DCD00F0F7EF3EF0050E026E0F0E016EF10EE8AC
:107DDD002EFED7012EFCD7022EFAD700F0F7EF3E7C
:107DED00F081BCFCEF3EF0FEEF3EF01FEF3FF08266
:107DFD000E016EDE0EE82EFED7012EFCD7010E0C05
:107E0D0026000E0D220E220F22050E0C180D100E3F
:107E1D00100F10D8A415EF3FF017EF3FF01FEF3FF5
:107E2D00F0010E0C6E000E0D6E000E0E6E000E0F9C
:107E3D006E074A082A0506D8A006066AEF3EF0121C
:107E4D0000000E076E000E066E000E096E000E0885
:107E5D006E000E056E000E046E065008248C6E0426
:107E6D00C001F0010E026E000E036E012A42EF3FBB
:107E7D00F0D89002360336012E3FEF3FF00F0E0281
:107E8D0016000E0316025006260350072204500753
:107E9D0008016E010E026E000E036E012A5AEF3FAD
:107EAD00F0D89002360336012E57EF3FF0F00E0258
:107EBD0016000E031602500826035009220C040D5D
:107ECD00100E100F10D8A46EEF3FF070EF3FF07949
:107EDD00EF3FF0820E016EDE0EE82EFED7012EFC76
:107EED00D7C7EF3FF0020E0C180D100E100F10D863
:107EFD00A483EF3FF085EF3FF093EF3FF0020E02CA
:107F0D006E040E016EBA0EE82EFED7012EFCD702BE
:107F1D002EFAD700D0C7EF3FF0030E0C180D100E40
:107F2D00100F10D8A49DEF3FF09FEF3FF0ADEF3F46
:107F3D00F0030E026E080E016E770EE82EFED701CD
:107F4D002EFCD7022EFAD700F0C7EF3FF0040E0C2F
:107F5D00180D100E100F10D8A4B7EF3FF0B9EF3F6A
:107F6D00F0C7EF3FF0050E026E0F0E016EF10EE839
:107F7D002EFED7012EFCD7022EFAD700F0C7EF3F09
:107F8D00F081BCCCEF3FF0CEEF3FF0EFEF3FF08252
:107F9D000E016EDE0EE82EFED7012EFCD7010E0C63
:107FAD0026000E0D220E220F22050E0C180D100E9E
:107FBD00100F10D8A4E5EF3FF0E7EF3FF0EFEF3FE4
:107FCD00F0010E0C6E000E0D6E000E0E6E000E0FFB
:107FDD006E044A052A05BEFDEF3FF0055009E10587
:107FED000E045CD8A0FDEF3FF0FFEF3FF033EF3F05
:037FFD00F012007F
:020000040020DA
:08000000FFFFFFFFFFFFFFFF00
:020000040030CA
:0E00000000091F1EFF8181FF0FC00FE00F409F
:00000001FF
