:020000040000FA
:040000000BEF16F0FC
:1008000000436F7274696E61204162616A6F2020DB
:1008100020202020202000436F7274696E612041E7
:100820007272696261202020202020200054696DAE
:100830003A25783A00313A4F4E202000323A4F4E56
:10084000202000333A4F4E20200054656D703A202E
:100850000025642563432000313A4F46462000328C
:100860003A4F46462000333A4F4646200043616CDB
:100870003A200025782000001A50800B236E1A5071
:100880001A24296E19AE47EF04F049EF04F04AEF3D
:1008900004F029802950D8B450EF04F052EF04F04E
:1008A00065EF04F02928D8A458EF04F05AEF04F0BB
:1008B00062EF04F0000E176E000E186E000E196E37
:1008C000000E1A6E198E6DEF04F0000E176E000EFA
:1008D000186E000E196E000E1A6E1E50800B231A31
:1008E0001E501E24286E1DAE78EF04F07AEF04F03F
:1008F0007BEF04F028802850D8B481EF04F083EF18
:1009000004F096EF04F02828D8A489EF04F08BEFC8
:1009100004F093EF04F0000E1B6E000E1C6E000E30
:100920001D6E000E1E6E1D8E9EEF04F0000E1B6EDF
:10093000000E1C6E000E1D6E000E1E6E2850D8B4E8
:10094000A4EF04F0A6EF04F0AEEF04F02950D8A411
:10095000ACEF04F0AEEF04F0B8EF04F0000E176E49
:10096000000E186E000E196E000E1A6E50EF06F093
:100970001D501702F3CF2EF0F4CF2FF02E50246E1F
:10098000256A266A276A2F502A6E2B6A2C6A2D6ADE
:100990001C501802F3CF2EF0F4CF2FF02E50242647
:1009A000000E2522262227222F502A26000E2B2237
:1009B0002C222D221B501902F3CF2EF0F4CF2FF052
:1009C0002E502426000E2522262227222F502A26AA
:1009D000000E2B222C222D2226C027F025C026F027
:1009E00024C025F0246A1B501802F3CF2EF0F4CF58
:1009F0002FF02E5024262F502522000E2622000EE6
:100A000027221C501702F3CF2EF0F4CF2FF02E50D8
:100A100024262F502522000E2622000E272226C033
:100A200027F025C026F024C025F0246A1B501702A9
:100A3000F3CF2EF0F4CF2FF02E5024262F50252266
:100A4000000E2622000E27221D501802F3CF2EF092
:100A5000F4CF2FF02E502A262F502B22000E2C22BE
:100A6000000E2D221C501902F3CF2EF0F4CF2FF0E0
:100A70002E502A262F502B22000E2C22000E2D2223
:100A80001D501902F3CF2EF0F4CF2FF02E501F6E11
:100A90002F50206E216A226A21C022F020C021F04E
:100AA0001FC020F01F6A1F502A2620502B222150E1
:100AB0002C2222502D2224C01FF025C020F026C059
:100AC00021F027C022F0190E6BEF05F0D8902232EA
:100AD000213220321F32E82E66EF05F01F502A2601
:100AE00020502B2221502C2222502D2226C027F0CC
:100AF00025C026F024C025F0246A285029C01FF004
:100B0000206A1F26000E2022820E1F242E6EFF0E4A
:100B100020202F6EA1EF05F0D8902A362B362C36E8
:100B20002D3627AE96EF05F098EF05F099EF05F01A
:100B30002A80D89024362536263627362E06D8A089
:100B40002F062CAEA6EF05F0A8EF05F08CEF05F010
:100B5000000E286E27AEAFEF05F0B1EF05F0D5EF30
:100B600005F0FF0E24141F6EFF0E2514206EFF0EDD
:100B70002614216E7F0E2714226E1F502010211084
:100B80002210D8B4C6EF05F0C8EF05F0CCEF05F0A1
:100B9000010E286ED5EF05F02AA0D1EF05F0D3EFB6
:100BA00005F0D5EF05F0C8EF05F02850D8B4DBEF1D
:100BB00005F0DDEF05F001EF06F0010E2A26000E2C
:100BC0002B222C222D222DA0E8EF05F0EAEF05F0D4
:100BD00001EF06F02AC01FF02BC020F02CC021F03E
:100BE0002DC022F022342232213220321F321FC087
:100BF0002AF020C02BF021C02CF022C02DF02E4A6C
:100C00002F2A2FBE0CEF06F02F5008E12E28D8A077
:100C10000CEF06F00EEF06F018EF06F0000E2A6E4D
:100C2000000E2B6E800E2C6E7F0E2D6E46EF06F0A2
:100C30002FBE25EF06F02F5006E12E04D8B023EF8B
:100C400006F025EF06F031EF06F0000E2A6E000EDA
:100C50002B6E000E2C6E000E2D6E000E236E46EFD6
:100C600006F02EC029F0FF0E2A16FF0E2B167F0E5F
:100C70002C16000E2D1629A040EF06F042EF06F0CC
:100C800043EF06F02C8ED89029302D6E23502D1274
:100C90002AC017F02BC018F02CC019F02DC01AF084
:100CA00012003350800B406E33503324476E32AE07
:100CB0005CEF06F05EEF06F05FEF06F0478047500E
:100CC000D8B465EF06F067EF06F07CEF06F0472832
:100CD000D8A46DEF06F06FEF06F077EF06F0000E88
:100CE000306E000E316E000E326E000E336E328E9C
:100CF000000E336E84EF06F0000E306E000E316E83
:100D0000000E326E000E336E3750800B401A375093
:100D10003724486E36AE8FEF06F091EF06F092EF73
:100D200006F048804850D8B498EF06F09AEF06F0E5
:100D3000AFEF06F04828D8A4A0EF06F0A2EF06F027
:100D4000AAEF06F0000E346E000E356E000E366E01
:100D5000000E376E368E000E376EB7EF06F0000EBF
:100D6000346E000E356E000E366E000E376E345047
:100D7000351036103710D8A4C0EF06F0C2EF06F0D9
:100D8000DAEF06F0000E306E000E316E000E326E9D
:100D9000000E336E800E32127F0E3312405033122B
:100DA00030C030F031C031F032C032F033C033F0F7
:100DB0001DEF08F04750D8A4E0EF06F0E2EF06F090
:100DC000ECEF06F0000E306E000E316E000E326E4B
:100DD000000E336E1DEF08F0485047C038F0396AF6
:100DE000385E000E395A7F0E3824416E000E3920CD
:100DF000426E30C03CF031C03DF032C03EF033C0F6
:100E00003FF0000E306E000E316E000E326E000E9E
:100E1000336E000E436E000E446E000E456E000EE3
:100E2000466E000E486E4DEF07F04850D8B41BEFE9
:100E300007F01DEF07F034EF07F0D8903C363D3651
:100E40003E363F36D890303631363236333646AEBF
:100E50002CEF07F02EEF07F02FEF07F03080D8903F
:100E6000433644364536463634503C5C35503D5862
:100E700036503E5837503F58D8A041EF07F043EF67
:100E800007F04CEF07F0468C34503C5E35503D5A2D
:100E900036503E5A37503F5A482A190E486453EF8D
:100EA00007F055EF07F015EF07F03C503D103E10EE
:100EB0003F10D8B45EEF07F060EF07F078EF07F06F
:100EC000438078EF07F0D8903036313632363336FB
:100ED00046AE6DEF07F06FEF07F070EF07F0308070
:100EE000D89043364436453646364106D8A04206A9
:100EF00032AE7DEF07F07FEF07F063EF07F0000EF3
:100F0000486E46AE86EF07F088EF07F0ACEF07F0CB
:100F1000FF0E4314386EFF0E4414396EFF0E451455
:100F20003A6E7F0E46143B6E385039103A103B1023
:100F3000D8B49DEF07F09FEF07F0A3EF07F0010E85
:100F4000486EACEF07F030A0A8EF07F0AAEF07F06B
:100F5000ACEF07F09FEF07F04850D8B4B2EF07F0BE
:100F6000B4EF07F0D8EF07F0010E3026000E312263
:100F70003222332233A0BFEF07F0C1EF07F0D8EFE2
:100F800007F030C038F031C039F032C03AF033C029
:100F90003BF03B343B323A323932383238C030F0F1
:100FA00039C031F03AC032F03BC033F0414A422AF6
:100FB00042BEE3EF07F0425008E14128D8A0E3EF3A
:100FC00007F0E5EF07F0F0EF07F0000E426E416822
:100FD000000E306E000E316E000E326E000E336E5B
:100FE00042BEFDEF07F0425006E14104D8B0FBEFEE
:100FF00007F0FDEF07F00BEF08F0000E426E000E59
:10100000416E000E306E000E316E000E326E000E1C
:10101000336E000E406E41C047F047A012EF08F05B
:1010200014EF08F017EF08F0328E18EF08F0329E38
:10103000D8904730336ECEEF06F0120045C0D9FF8E
:1010400046C0DAFFDECFF6FFDDCFF7FF0800F55030
:10105000250AD8A42EEF08F030EF08F087EF09F04A
:1010600045C0D9FF46C0DAFFDE2A000EDD22000EA1
:101070000001B96F000EB86FB8C0BCF0B9C0BDF0C8
:10108000BA69BB6945C0D9FF46C0DAFFDECFF6FFBB
:10109000DDCFF7FF0800F550630AD8A452EF08F03F
:1010A00054EF08F07BEF08F045C0D9FF46C0DAFFE7
:1010B000DE2A000EDD2247C0D9FF48C0DAFFDFCFAD
:1010C00049F0020EDE26DFCF4AF0000EDD2249C0D5
:1010D000D9FF4AC0DAFFDF505D6E43C00AF044C05A
:1010E0000BF05DC00CF0A8EC13F00AC043F00BC08D
:1010F00044F0A2EF09F045C0D9FF46C0DAFFDECFC9
:10110000F6FFDDCFF7FF0800F550640AD8B48BEF87
:1011100008F08DEF08F09FEF08F045C0D9FF46C0FA
:10112000DAFFDECFF6FFDDCFF7FF0800F550690AE2
:10113000D8A49DEF08F09FEF08F0DFEF08F045C05E
:10114000D9FF46C0DAFFDE2A000EDD2247C0D9FFF4
:1011500048C0DAFFDFCF49F0020EDE26DFCF4AF0CB
:10116000000EDD2249C0D9FF4AC0DAFFDECF4DF0C4
:10117000DDCF4EF0000E4EBEFF0E4F6E506E516E24
:10118000526E536E546E43C01CF044C01DF04DC0EF
:101190001EF04EC01FF04FC020F050C021F051C0D3
:1011A00022F052C023F053C024F054C025F0A3EC29
:1011B00009F01CC043F01DC044F0A2EF09F045C087
:1011C000D9FF46C0DAFFDECFF6FFDDCFF7FF08001C
:1011D000F550780AD8B4EFEF08F0F1EF08F003EF1C
:1011E00009F045C0D9FF46C0DAFFDECFF6FFDDCFFC
:1011F000F7FF0800F550580AD8A401EF09F003EFF3
:1012000009F051EF09F045C0D9FF46C0DAFFDECF43
:10121000F6FFDDCFF7FF0800F5CF5DF045C0D9FF41
:1012200046C0DAFFDE2A000EDD2247C0D9FF48C0E3
:10123000DAFFDFCF49F0020EDE26DFCF4AF0000EE4
:10124000DD2249C0D9FF4AC0DAFFDECF4BF0DDCF47
:101250004CF04BC055F04CC056F0576A586A596A6A
:101260005A6A5B6A5C6A43C01CF044C01DF055C0FA
:101270001EF056C01FF057C020F058C021F059C0D2
:1012800022F05AC023F05BC024F05CC025F05DC0A2
:1012900026F015EC0BF01CC043F01DC044F0A2EF8B
:1012A00009F045C0D9FF46C0DAFFDECFF6FFDDCF3B
:1012B000F7FF0800F550250AD8A461EF09F063EFA5
:1012C00009F07AEF09F045C0D9FF46C0DAFFDE2AFF
:1012D000000EDD22000E026E250E016E43C003F0EB
:1012E00044C004F014EC14F0000E446E010E436E82
:1012F000A2EF09F045C0D9FF46C0DAFFDE2A000E92
:10130000DD22000E446E000E436EA2EF09F045C0D0
:10131000D9FF46C0DAFFDECFF6FFDDCFF7FF0800CA
:10132000F550016E026A43C003F044C004F014ECAF
:1013300014F045C0D9FF46C0DAFFDE2A000EDD22D8
:1013400074EF09F012001EC036F01FC037F020C045
:1013500038F021C039F022C03AF023C03BF024C05D
:101360003CF025C03DF03DBEB8EF09F0BBEF09F001
:10137000010EBCEF09F0000E346E356A34503510A2
:10138000D8B4C5EF09F0C7EF09F0D7EF09F03D1E5B
:101390003C1E3B1E3A1E391E381E371E366C000E90
:1013A0003722382239223A223B223C223D220001B8
:1013B000BBBFDDEF09F0DFEF09F0E0EF09F0BC9310
:1013C000BBBFEDEF09F0BB5106E1BA05D8B0EBEFBA
:1013D00009F0EDEF09F0F3EF09F0000E316E010EA8
:1013E000306EF7EF09F0BAC030F0BBC031F0B8C0D2
:1013F00032F0B9C033F034503510D8A402EF0AF0FF
:1014000004EF0AF00BEF0AF0BCA509EF0AF00BEFAE
:101410000AF00EEF0AF03206D8A03306000E3F6E37
:101420001F0E3E6E000E0101BA6F93EF0AF03E06EA
:10143000D8A03F069B0E3E24D96E010E3F20DA6EE7
:1014400036C001F037C002F038C003F039C004F0F4
:101450003AC005F03BC006F03CC007F03DC008F0C4
:101460000A0E096E000E0A6E000E0B6E000E0C6E58
:10147000000E0D6E000E0E6E000E0F6E000E106E42
:10148000F1EC11F001C026F002C027F003C028F0F3
:1014900004C029F005C02AF006C02BF007C02CF0CC
:1014A00008C02DF026C013F028C014F0A2EC17F0ED
:1014B0001350300FDF6E3006D8A031063206D8A0A8
:1014C000330636C001F037C002F038C003F039C02F
:1014D00004F03AC005F03BC006F03CC007F03DC048
:1014E00008F00A0E096E000E0A6E000E0B6E000E5A
:1014F0000C6E000E0D6E000E0E6E000E0F6E000EC6
:10150000106E72EC10F001C036F002C037F003C06C
:1015100038F004C039F005C03AF006C03BF007C00F
:101520003CF008C03DF03FBE9EEF0AF03F5008E19E
:101530003E04D8A09EEF0AF0A0EF0AF0D1EF0AF027
:1015400036503710381039103A103B103C103D100F
:10155000D8A4ADEF0AF0AFEF0AF017EF0AF031BEF2
:10156000BCEF0AF0315006E13004D8B0BAEF0AF00F
:10157000BCEF0AF017EF0AF033BEC7EF0AF03350A2
:1015800008E13204D8A0C7EF0AF0C9EF0AF0D1EFA2
:101590000AF00001BCB3CFEF0AF0D1EF0AF017EF69
:1015A0000AF034503510D8A4D8EF0AF0DAEF0AF078
:1015B000E2EF0AF00001BCA5E0EF0AF0E2EF0AF06A
:1015C00000EF0BF03E06D8A03F0634503510D8A4EB
:1015D000ECEF0AF0EEEF0AF0F4EF0AF0000E2F6ED7
:1015E0002B0E2E6EF8EF0AF0000E2F6E2D0E2E6EC3
:1015F0009B0E3E24D96E010E3F20DA6E2EC0DFFF17
:101600001CC011F01DC012F09B0E3E24136E010E83
:101610003F20146E32C015F033C016F079EC14F090
:1016200011C01CF012C01DF012000001BBBF1BEF67
:101630000BF01DEF0BF01EEF0BF0BC93BBBF2BEFBD
:101640000BF0BB5106E1BA05D8B029EF0BF02BEF38
:101650000BF031EF0BF0000E346E010E336E35EFF0
:101660000BF0BAC033F0BBC034F0B8C035F0B9C02D
:1016700036F0BCA93EEF0BF040EF0BF044EF0BF05F
:10168000FE0E3526FF0E36221EC037F01FC038F082
:1016900020C039F021C03AF022C03BF023C03CF01A
:1016A00024C03DF025C03EF0000E406E1F0E3F6E80
:1016B000000E0101BA6F10EF0CF03F06D8A04006F3
:1016C0000F0E3714416E426A42BE70EF0BF042506B
:1016D00009E10A0E415CD8A070EF0BF072EF0BF03D
:1016E0007AEF0BF0570E4124416E000E4220426EFD
:1016F00080EF0BF0300E4124416E000E4220426E0E
:10170000BF0E276EFF0E286E2650296E2A6A2750BC
:10171000292628502A222A500AE11A0E295CD8A02C
:1017200094EF0BF097EF0BF0010E98EF0BF0000E1B
:101730002F6E306A2F503010D8B4A1EF0BF0A3EF0A
:101740000BF0D3EF0BF09F0E276EFF0E286E200ECE
:101750004110296E000E42102A6E2750292628506B
:101760002A222A500AE11A0E295CD8A0BAEF0BF0FF
:10177000BDEF0BF0010EBEEF0BF0000E316E326AC2
:1017800031503210D8B4C7EF0BF0C9EF0BF0D3EFE4
:101790000BF041C007F042C008F06DEC16F007C036
:1017A00041F008C042F09B0E3F24D96E010E40204C
:1017B000DA6E41C0DFFF3306D8A034063506D8A064
:1017C000360637C027F038C028F039C029F03AC0B3
:1017D0002AF03BC02BF03CC02CF03DC02DF03EC0A9
:1017E0002EF0050EFDEF0BF0D8902E322D322C325C
:1017F0002B322A32293228322732E82EF4EF0BF02E
:1018000027C037F028C038F029C039F02AC03AF094
:101810002BC03BF02CC03CF02DC03DF02EC03EF064
:1018200040BE1CEF0CF0405009E1020E3F5CD8A016
:101830001CEF0CF01EEF0CF04FEF0CF0375038108F
:1018400039103A103B103C103D103E10D8A42BEF3D
:101850000CF02DEF0CF05DEF0BF034BE3AEF0CF016
:10186000345006E13304D8B038EF0CF03AEF0CF006
:101870005DEF0BF036BE45EF0CF0365008E1350455
:10188000D8A045EF0CF047EF0CF04FEF0CF0000143
:10189000BCB34DEF0CF04FEF0CF05DEF0BF000011F
:1018A000BCA955EF0CF057EF0CF06DEF0CF03F06B4
:1018B000D8A040069B0E3F24D96E010E4020DA6E60
:1018C00026C0DFFF3F06D8A040069B0E3F24D96EFE
:1018D000010E4020DA6E300EDF6E1CC011F01DC00C
:1018E00012F09B0E3F24136E010E4020146E35C083
:1018F00015F036C016F079EC14F011C01CF012C0CF
:101900001DF0120093949396000E0A6E4A0E0B6E11
:10191000080E0C6E020EC4EC15F0000E026E000EE6
:10192000016EDCEC14F001C009F002C00AF0000EF8
:101930000ABEFF0E0B6E0C6E010ECBEC0EF009C052
:1019400017F00AC018F00BC019F00CC01AF0F60E10
:101950001B6E280E1C6E9C0E1D6E400E1E6E3CEC07
:1019600004F017C0B2F018C0B3F019C0B4F01AC038
:10197000B5F0B2C030F0B3C031F0B4C032F0B5C091
:1019800033F0000E346E000E356E200E366E410EB2
:10199000376E51EC06F030C0B2F031C0B3F032C057
:1019A000B4F033C0B5F0A40E0001666F000E676F8F
:1019B000510E686F080E696FB2C001F0B3C002F03B
:1019C000B4C003F0B5C004F0A3EC12F001C06AF09B
:1019D00002C06BF0000E00016D6FDF0E6C6FCBEC80
:1019E00016F0060E0A6EA40E0B6E000E0C6E020EA2
:1019F000C4EC15F0A40E016E000E026E000E046E13
:101A0000000E036E000E066E0A0E056E36EC11F027
:101A1000B2C001F0B3C002F0B4C003F0B5C004F02E
:101A2000000E056E000E066EA00E076E410E086ECB
:101A300026EC13F0D8A01FEF0DF021EF0DF082EF90
:101A40000DF0000E016E000E026EC80E036E410E08
:101A5000046EB2C005F0B3C006F0B4C007F0B5C064
:101A600008F026EC13F0D8A038EF0DF03AEF0DF0A7
:101A700082EF0DF08A848A9621EE00F010EE78F065
:101A8000160EDBCFE3FFE806FCE2000E0001AF6FAD
:101A9000000EAE6FACA24FEF0DF051EF0DF04AEF1C
:101AA0000DF0780E0001AE25D96E000EAF21DA6E72
:101AB000DF50AD6EAE4BAF2BAFBF68EF0DF0AF5147
:101AC00009E1190EAE5DD8A068EF0DF06AEF0DF0D8
:101AD0004AEF0DF00D0E0A6E6D0E0B6E080E0C6EB9
:101AE000020EC4EC15F0EA0E086E000E096E000E30
:101AF00019EC17F0D10EE6EC18F0000ED8EC18F047
:101B0000C8EF0DF08A948A8621EE17F010EE8FF060
:101B1000140EDBCFE3FFE806FCE2000E0001B16F1C
:101B2000000EB06FACA297EF0DF099EF0DF092EFB1
:101B30000DF08F0E0001B025D96E000EB121DA6EC6
:101B4000DF50AD6EB04BB12BB1BFB0EF0DF0B15166
:101B500009E1150EB05DD8A0B0EF0DF0B2EF0DF0B9
:101B600092EF0DF00D0E0A6E6D0E0B6E080E0C6EE0
:101B7000020EC4EC15F0E20E086E000E096E000EA7
:101B800019EC17F0D10EE6EC18F0000ED8EC18F0B6
:101B900012000F0EC16E9284928692889490949255
:101BA000949421EE68F010EE9CF0130EDBCFE3FF6F
:101BB000E806FCE280A4DFEF0DF0E1EF0DF01CEF92
:101BC0000EF08B809C0E056E000E066E350E076EB5
:101BD000080E086E82EC17F021EE54F010EE60F063
:101BE000130EDBCFE3FFE806FCE2000E0001B16F4D
:101BF000000EB06FACA2FFEF0DF001EF0EF0FAEFA8
:101C00000DF0600E0001B025D96E000EB121DA6E24
:101C1000DF50AD6EB04BB12BB1BF18EF0EF0B1512C
:101C200009E1140EB05DD8A018EF0EF01AEF0EF017
:101C3000FAEF0DF027EF0EF08B909C0E056E000E64
:101C4000066E580E076E080E086E82EC17F080A61E
:101C50002CEF0EF02EEF0EF069EF0EF08B829C0E43
:101C60000D6E000E0E6E3C0E0F6E080E106EB4EC74
:101C700018F021EE40F010EE74F0130EDBCFE3FF0E
:101C8000E806FCE2000E0001B36F000EB26FACA2DA
:101C90004CEF0EF04EEF0EF047EF0EF0740E000119
:101CA000B225D96E000EB321DA6EDF50AD6EB24BA5
:101CB000B32BB3BF65EF0EF0B35109E1140EB25D63
:101CC000D8A065EF0EF067EF0EF047EF0EF074EF5F
:101CD0000EF08B929C0E0D6E000E0E6E5F0E0F6E50
:101CE000080E106EB4EC18F080A879EF0EF07BEFC0
:101CF0000EF0B6EF0EF08B849C0E0D6E000E0E6E85
:101D0000430E0F6E080E106EB4EC18F021EE2CF09E
:101D100010EE88F0130EDBCFE3FFE806FCE2000EC6
:101D20000001B56F000EB46FACA299EF0EF09BEFFF
:101D30000EF094EF0EF0880E0001B425D96E000E5F
:101D4000B521DA6EDF50AD6EB44BB52BB5BFB2EF37
:101D50000EF0B55109E1140EB45DD8A0B2EF0EF04B
:101D6000B4EF0EF094EF0EF0C1EF0EF08B949C0EDA
:101D70000D6E000E0E6E660E0F6E080E106EB4EC39
:101D800018F0000E0A6E9C0E0B6E000E0C6E030E09
:101D9000C4EC15F01200116E1150D8B4D2EF0EF051
:101DA000D4EF0EF0F6EF0EF00CBEDBEF0EF0D9EF35
:101DB0000EF0F6EF0EF009C00DF00AC00EF00BC0E9
:101DC0000FF00CC010F00D1E0E1E0F1E101E0D2A5F
:101DD000000E0E220F2210220DC013F00EC014F0C0
:101DE0000FC015F010C016F0FEEF0EF009C013F092
:101DF0000AC014F00BC015F00CC016F009500A1000
:101E00000B100C10D8A407EF0FF009EF0FF013EF31
:101E10000FF0000E096E000E0A6E000E0B6E000E23
:101E20000C6EA4EF0FF0960E126E1DEF0FF0122A3B
:101E3000D8901632153214321332000E13140D6E70
:101E4000000E14140E6E000E15140F6EFE0E1614F6
:101E5000106E0D500E100F101010D8A432EF0FF0AE
:101E600034EF0FF017EF0FF042EF0FF0122A010ED0
:101E70001326000E142215221622D890163215327F
:101E800014321332000E13140D6E000E14140E6E65
:101E9000000E15140F6EFF0E1614106E0D500E105E
:101EA0000F101010D8A457EF0FF059EF0FF036EFC6
:101EB0000FF061EF0FF01206D89013361436153676
:101EC000163615BE66EF0FF068EF0FF070EF0FF0EB
:101ED000020E12606EEF0FF070EF0FF05BEF0FF07D
:101EE00012B075EF0FF077EF0FF078EF0FF0159E4F
:101EF000D890123212C00DF00E6A0F6A106A0DC02F
:101F000010F00F6A0E6A0D6A0D5013120E50141263
:101F10000F501512105016121150D8B492EF0FF046
:101F200094EF0FF09CEF0FF00CBE9BEF0FF099EFCA
:101F30000FF09CEF0FF0168E13C009F014C00AF0DA
:101F400015C00BF016C00CF01200400EE6EC18F0B5
:101F5000000E1B6E000E1C6EA00E1D6E400E1E6E3F
:101F6000000E026E010E016EDCEC14F001C009F0EF
:101F700002C00AF0000E0ABEFF0E0B6E0C6E010EC0
:101F8000CBEC0EF009C017F00AC018F00BC019F026
:101F90000CC01AF03CEC04F017C030F018C031F05F
:101FA00019C032F01AC033F0000E346EC00E356E18
:101FB0007F0E366E440E376E51EC06F030C07FF067
:101FC00031C080F032C081F033C082F0000E016E6B
:101FD000000E026E400E036E400E046E7FC005F0D0
:101FE00080C006F081C007F082C008F026EC13F034
:101FF000D8B0FDEF0FF0FFEF0FF039EF10F0000E4B
:102000000A6E170E0B6E080E0C6E040EC4EC15F063
:10201000848021EE7CF010EE60F00F0EDBCFE3FF4A
:10202000E806FCE2000E0001846F000E836FACA294
:102030001CEF10F01EEF10F017EF10F0600E000113
:102040008325D96E000E8421DA6EDF50AD6E834B8E
:10205000842B84BF35EF10F0845109E10F0E835DAE
:10206000D8A035EF10F037EF10F017EF10F071EF48
:1020700010F0000E0A6E010E0B6E080E0C6E040EB0
:10208000C4EC15F0849021EE8CF010EE70F00E0E82
:10209000DBCFE3FFE806FCE2000E0001866F000ED6
:1020A000856FACA256EF10F058EF10F051EF10F022
:1020B000700E00018525D96E000E8621DA6EDF5084
:1020C000AD6E854B862B86BF6FEF10F0865109E110
:1020D0000F0E855DD8A06FEF10F071EF10F051EF8B
:1020E00010F01200000E126E10BE7BEF10F079EFB0
:1020F00010F08DEF10F0101E0F1E0E1E0D1E0C1E88
:102100000B1E0A1E096C000E0A220B220C220D2245
:102110000E220F221022010E126E08BE94EF10F054
:1021200092EF10F0A6EF10F0081E071E061E051E07
:10213000041E031E021E016C000E02220322042252
:102140000522062207220822010E121A20EE13F0A1
:10215000070EDE6AE806FDE209500A100B100C10AB
:102160000D100E100F101010D8B4B9EF10F0BBEF17
:1021700010F00DEF11F0010E116EC9EF10F0D890B4
:1021800009360A360B360C360D360E360F3610363B
:10219000112A10AECEEF10F0D0EF10F0BFEF10F01C
:1021A000D8901336143615361636173618361936B3
:1021B0001A360950015C0A5002580B5003580C5053
:1021C00004580D5005580E5006580F50075810501F
:1021D0000858D8A0EEEF10F0F0EF10F001EF11F07A
:1021E0000950015E0A50025A0B50035A0C50045A0F
:1021F0000D50055A0E50065A0F50075A1050085AE3
:102200001380D89010320F320E320D320C320B3256
:102210000A320932112ED0EF10F01250D8B413EF59
:1022200011F015EF11F025EF11F01A1E191E181EEE
:10223000171E161E151E141E136C000E14221522D6
:1022400016221722182219221A2213C001F014C0D4
:1022500002F015C003F016C004F017C005F018C056
:1022600006F019C007F01AC008F0120001C00BF008
:1022700002C00CF005500610D8A441EF11F043EF56
:1022800011F045EF11F0F0EF11F00BC0D9FF0CC0C9
:10229000DAFF03C0DFFF05500B24076E06500C2049
:1022A000086EFF0E0724D96EFF0E0820DA6E03C0F9
:1022B000DFFF065007E1030E055CD8B062EF11F0B6
:1022C00064EF11F066EF11F0F0EF11F020EE01F085
:1022D0000B50D9260C50DA2203C0DFFF20EE02F0AB
:1022E0000B50D9260C50DA2203C0DFFF05500B2417
:1022F000076E06500C20086EFE0E0724D96EFF0EE6
:102300000820DA6E03C0DFFF05500B24076E06506D
:102310000C20086EFD0E0724D96EFF0E0820DA6E21
:1023200003C0DFFF065007E1070E055CD8B09BEF46
:1023300011F09DEF11F09FEF11F0F0EF11F020EE92
:1023400003F00B50D9260C50DA2203C0DFFF0550F2
:102350000B24076E06500C20086EFC0E0724D96E65
:10236000FF0E0820DA6E03C0DFFF065007E1090EFA
:10237000055CD8B0BEEF11F0C0EF11F0C2EF11F064
:10238000F0EF11F00BC007F00CC008F0071E081E9C
:10239000074A082A030E0714096E0A6A09500B2619
:1023A0000A500C220950055E0A50065AFC0E05160A
:1023B000FF0E0616E7EF11F00BC0D9FF0CC0DAFFD5
:1023C00003C0DFFF0506D8A006060B4A0C2A0550FD
:1023D0000610D8A4EEEF11F0F0EF11F0DCEF11F0E1
:1023E0001200000E126E08BEFAEF11F0F8EF11F0B5
:1023F0000CEF12F0081E071E061E051E041E031E0B
:10240000021E016C000E0222032204220522062273
:1024100007220822010E126E10BE13EF12F011EF08
:1024200012F023EF12F0101E0F1E0E1E0D1E0C1EBA
:102430000B1E0A1E096C000E0A220B220C220D2212
:102440000E220F22102209500A100B100C100D1032
:102450000E100F101010D8B430EF12F032EF12F04F
:102460007AEF12F0010E116E40EF12F0D89009369B
:102470000A360B360C360D360E360F361036112A4C
:1024800010AE45EF12F047EF12F036EF12F00950A0
:10249000015C0A5002580B5003580C5004580D5060
:1024A00005580E5006580F50075810500858D8A01D
:1024B0005CEF12F05EEF12F06EEF12F00950015E69
:1024C0000A50025A0B50035A0C50045A0D50055A28
:1024D0000E50065A0F50075A1050085AD890103212
:1024E0000F320E320D320C320B320A320932112EFB
:1024F00047EF12F01250D8B480EF12F082EF12F0D2
:1025000092EF12F0081E071E061E051E041E031E73
:10251000021E016C000E0222032204220522062262
:102520000722082201C001F002C002F003C003F03C
:1025300004C004F005C005F006C006F007C007F0AF
:1025400008C008F01200033404340A6E0A50D8A4FC
:10255000ACEF12F0AEEF12F0B8EF12F0000E016E19
:10256000000E026E000E036E000E046E25EF13F0D7
:1025700001C005F002C006F003C007F004C008F077
:10258000200EC8EF12F0D89008320732063205321A
:10259000E82EC3EF12F00550096E038EFF0E0116F0
:1025A000FF0E0216FF0E0316000E0416960E0A5EAC
:1025B0000ABEDFEF12F0DDEF12F0F5EF12F00A5075
:1025C000800A970FD8B0E7EF12F0E9EF12F0EBEFC7
:1025D00012F0AEEF12F0D890043203320232013220
:1025E0000A3EEBEF12F00DEF13F01F0E0A64FBEF43
:1025F00012F0FDEF12F005EF13F0AEEF12F0D890ED
:1026000001360236033604360A060A50D8A40BEF08
:1026100013F00DEF13F0FFEF12F00950D8B413EFE1
:1026200013F015EF13F01DEF13F0041E031E021E2E
:10263000016C000E02220322042201C001F002C03C
:1026400002F003C003F004C004F01200000E0114F5
:10265000096E000E02140A6E800E03140B6E7F0EBC
:1026600004140C6E09500A100B100C10D8A43BEF88
:1026700013F03DEF13F045EF13F0000E016E000E66
:10268000026E000E036E000E046E000E0514096E3D
:10269000000E06140A6E800E07140B6E7F0E0814CF
:1026A0000C6E09500A100B100C10D8A45AEF13F03E
:1026B0005CEF13F064EF13F0000E056E000E066E73
:1026C000000E076E000E086E04AE69EF13F06BEF9C
:1026D00013F074EF13F0016C021ED8B0022A031E2F
:1026E000D8B0032A800E045608AE79EF13F07BEFC2
:1026F00013F084EF13F0056C061ED8B0062A071EEF
:10270000D8B0072A800E0856000E011A000E021AD1
:10271000000E031A800E041A000E051A000E061A87
:10272000000E071A800E081A0550015C0650025868
:102730000750035808500458D8B0A1EF13F0A3EF86
:1027400013F0A6EF13F0D890A7EF13F0D880120083
:102750000001B851B911D8A4B0EF13F0B2EF13F0E3
:10276000B8EF13F0B8C010F0B9C011F0BEEF13F01D
:10277000FF0EB825106EFF0EB921116EBCA1C3EF7C
:1027800013F0C5EF13F0CEEF13F00CC001F0026AA6
:102790000AC003F00BC004F014EC14F011BED3EF28
:1027A00013F0D5EF13F0D7EF13F0DBEF13F0000EBB
:1027B000116E000E106E000E0F6E000E0E6EEDEF1D
:1027C00013F0000E026E200E016E0AC003F00BC063
:1027D00004F014EC14F00E4A0F2A10500E5C0F5047
:1027E000800A0D6E1150800A0D58D8A0FAEF13F030
:1027F000FCEF13F0E1EF13F00001BCB102EF14F0B5
:1028000004EF14F00DEF14F00CC001F0026A0AC0DE
:1028100003F00BC004F014EC14F0010E0E240A6E49
:10282000000E0F200B6E120003500410D8B41BEFE3
:1028300014F01DEF14F026EF14F003500410D8A488
:1028400024EF14F026EF14F02BEF14F001503CECC1
:1028500019F078EF14F020EE04F00350D92604505C
:10286000DA22DE50DE10D8B438EF14F03AEF14F06C
:1028700055EF14F020EE04F00350D9260450DA226C
:1028800010EE02F00350E1260450E222DE50E65C36
:10289000E650800A096EDE50800A0958D8B053EF1E
:1028A00014F055EF14F078EF14F020EE02F003501E
:1028B000D9260450DA22DECF05F0DDCF06F003C0C2
:1028C000D9FF04C0DAFFDECF07F0DDCF08F00550F6
:1028D0000724D96E06500820DA6E01C0DFFF20EE13
:1028E00002F00350D9260450DA22DE2A000EDD223F
:1028F00012000001BCA17FEF14F081EF14F08BEF08
:1029000014F013C00AF014C00BF011C00CF012C088
:102910000DF060EC17F016BE90EF14F092EF14F08B
:1029200098EF14F015C01AF016C01BF09CEF14F0CD
:10293000000E1B6E000E1A6E000E196E000E186E41
:10294000AEEF14F0000E026E200E016E11C003F007
:1029500012C004F014EC14F0184A192A1A50185C2A
:102960001950800A176E1B50800A1758D8A0BBEF69
:1029700014F0BDEF14F0A2EF14F00001BCB1C3EFEE
:1029800014F0C5EF14F0CFEF14F013C00AF014C028
:102990000BF011C00CF012C00DF060EC17F013C07A
:1029A00001F014C002F054EC18F01A500124116E1A
:1029B0001B500220126E120001C003F0D8900336A3
:1029C000D89003363C0E0316C250C30B0310C26EE0
:1029D000C2B2EDEF14F0F1EF14F0036A032AF2EF44
:1029E00014F0036A010E046E032AF9EF14F0D89074
:1029F0000436032EF7EF14F0C2B001EF15F005EF27
:102A000015F0056A052A06EF15F0056A010E066E37
:102A1000052A0DEF15F0D8900636052E0BEF15F0B0
:102A200006500410C212C2B218EF15F01AEF15F0DA
:102A300013EF15F0C350C4CF03F0046A03C004F0D1
:102A4000036A0310076E0450086E07C001F008C047
:102A500002F0120043616C6566616363696F6E200A
:102A6000656E63656E646964610D0043616C6566E3
:102A7000616363696F6E20617061676164610D00FD
:102A800050726573656E63696120656E206C6120AC
:102A900048330D0050726573656E63696120656E21
:102AA000206C612048320D0050726573656E636959
:102AB0006120656E206C612048310D0030000000FF
:102AC0000000000000000000000000000000000006
:102AD000436F7274696E61206172726962610D0088
:0F2AE000436F7274696E61206162616A6F0D00ED
:102AF000000E3DEC17F021EC19F01F0E0001BE1581
:102B0000BE6FBF6BD80E666F000E676F730E686F77
:102B1000080E696FC2C06AF0C3C06BF0CBEC16F050
:102B2000CE0E0001666F000E676F310E686F080EE3
:102B3000696FC0C06AF0C1C06BF0CBEC16F0C40E78
:102B40000001666F000E676F2D0E686F080E696FCB
:102B5000BEC06AF0BFC06BF0CBEC16F0000E0A6E80
:102B6000C40E0B6E000E0C6E000EC4EC15F0CE0EF3
:102B7000086E000E096E9CEC16F0D80E086E000E62
:102B8000096E9CEC16F012000D6E0D04D8A4CBEF6C
:102B900015F0CDEF15F0D4EF15F00A500F0B8009AA
:102BA000E6EC18F004EF16F0020E0D18D8A4DBEFD7
:102BB00015F0DDEF15F0E4EF15F00A500F0BC0092A
:102BC000E6EC18F004EF16F0030E0D18D8A4EBEFA6
:102BD00015F0EDEF15F0F4EF15F00A500F0B940916
:102BE000E6EC18F004EF16F0040E0D18D8A4FBEF75
:102BF00015F0FDEF15F004EF16F00A500F0BD40995
:102C0000E6EC18F004EF16F00BC008F00CC009F069
:102C10009CEC16F01200540EF66E2A0EF76E000EA3
:102C2000F86E01EE00F010EE9BF00900F5CFEEFF1C
:102C3000E550E150FAE1680EF66E320EF76E000EC6
:102C4000F86E00EEE2F010EE10F00900F5CFEEFFA6
:102C5000E550E150FAE101EE9BF0200EEE6AE80645
:102C6000FDE100EEB6F02C0EEE6AE806FDE1000E86
:102C7000F86E0001C2EF17F062C05EF063C05FF053
:102C8000000E0001B76F000EB66F5AEF16F060C06D
:102C900043F061C044F05E0E456E000E466E64C0A7
:102CA00047F065C048F01EEC08F043500001B6271D
:102CB0004450B7235EC0F6FF5FC0F7FF0800F55031
:102CC0000009D8A466EF16F068EF16F047EF16F08B
:102CD000B6C060F0B7C061F012009F0E096EFF0E23
:102CE0000A6E07C00BF008C00CF009500B260A5002
:102CF0000C220C500AE11A0E0B5CD8A082EF16F0E1
:102D000085EF16F0010E86EF16F0000E0D6E0E6ABE
:102D10000D500E10D8B48FEF16F091EF16F097EF1C
:102D200016F05F0E0714076E086A9BEF16F007C0D7
:102D300007F008C008F01200B2EF16F008C0F6FF66
:102D400009C0F7FFF86A070EF76403D00800F550D2
:102D500005D0F6CFE1FFF7CFE2FFE750D8EC18F04F
:102D6000084A092A08C0F6FF09C0F7FFF86A070EEB
:102D7000F76403D00800F55005D0F6CFE1FFF7CF98
:102D8000E2FFE7500009D8A4C8EF16F0CAEF16F02A
:102D90009EEF16F012006A0E0001706F000E716F48
:102DA00066C072F067C073F0000E756F000E746F2E
:102DB000000E776F000E766F720E606F000E616FFF
:102DC00068C062F069C063F0700E646F000E656FDA
:102DD0003CEC16F0000174516625D96E75516721DF
:102DE000DA6E000EDF6E1200000E046E000E036E2F
:102DF0000DEF17F0000E066E000E056E054A062A4E
:102E0000065009E1A50E055CD8A009EF17F00BEFFD
:102E100017F0FEEF16F0034A042A0350015C045039
:102E20000258D8B016EF17F018EF17F0FAEF16F0B7
:102E300012000A6E080E0A6020EF17F022EF17F05A
:102E40003CEF17F00A50080DF350400FE6EC18F075
:102E5000000E0B6E0B500824D96E000E0920DA6E9E
:102E6000DF50D8EC18F00B2A070E0B643AEF17F07E
:102E70003CEF17F02AEF17F01200046ED00E6FEC43
:102E800018F00450C7EC18F0D10E86EC18F0000EC4
:102E9000FFEC17F0036E03500001C26FC36B000E0E
:102EA000FFEC17F0036E03500001C06FC16B010E01
:102EB000FFEC17F0036E03500001BE6FBF6B1200F2
:102EC000000E106E000E0F6E71EF17F00EC001F0C5
:102ED000026A0CC003F00DC004F014EC14F00F4AA9
:102EE000102A0F500A24D96E10500B20DA6EDF50D2
:102EF0000E6E0E50D8A47FEF17F081EF17F066EF3B
:102F000017F0120007C009F008C00AF005C00BF066
:102F100006C00CF009C0F6FF0AC0F7FF094A0A2AEA
:102F20000BC0D9FF0CC0DAFF0B4A0C2A0800F5CF02
:102F3000DFFFDF50D8A49FEF17F0A1EF17F08AEF63
:102F400017F0120014BEAFEF17F0145006E113048F
:102F5000D8B0ADEF17F0AFEF17F0BDEF17F013C01B
:102F600015F014C016F0151E161E154A162A15C0A7
:102F700013F016C014F0C1EF17F013C013F014C013
:102F800014F01200720ED36EF4EC18F09DEC18F0F1
:102F900001EC19F00F0EC16E949CAC9CAC8AAC98FD
:102FA000AC94B896AB8E0C0EAF6E78EC15F082EC4C
:102FB0000CF0C9EC0DF0A5EC0FF0D5EF17F000EF19
:102FC00000F09F0E036EFF0E046E200E0110056EC2
:102FD000000E0210066E035005260450062206500D
:102FE0000AE11A0E055CD8A0F8EF17F0FBEF17F016
:102FF000010EFCEF17F0000E016E026A1200016E66
:10300000C586C7A006EF18F008EF18F001EF18F01A
:10301000C9CF02F00150D8A410EF18F012EF18F049
:1030200016EF18F017EC19F018EF18F00DEC19F076
:103030002BEC19F0025012009F0E036EFF0E046E6F
:1030400001C005F002C006F0035005260450062218
:1030500006500AE11A0E055CD8A031EF18F034EFE3
:1030600018F0010E35EF18F0000E016E026A120022
:10307000BF0E036EFF0E046E01C005F002C006F025
:10308000035005260450062206500AE11A0E055C7C
:10309000D8A04DEF18F050EF18F0010E51EF18F0D6
:1030A000000E016E026A120001C003F002C004F0BB
:1030B0005CEF18F0014A022A01C0D9FF02C0DAFF12
:1030C000DF50D8A466EF18F068EF18F05AEF18F048
:1030D0000350015C016E04500258026E1200026E31
:1030E000C580C5B076EF18F078EF18F071EF18F0E2
:1030F0009E96C7B67EEF18F080EF18F082EF18F0BA
:1031000085EF18F00250C7EC18F01200026EC5826D
:10311000C5B28DEF18F08FEF18F088EF18F09E967B
:10312000C7B695EF18F097EF18F099EF18F09CEFED
:1031300018F00250C7EC18F01200000E966E000E48
:10314000956E000E026E140E016EF4EC16F0380E41
:10315000E6EC18F0010EE6EC18F00C0EE6EC18F0B8
:10316000060EE6EC18F012000DC001F00EC002F0E1
:1031700054EC18F001500D24056E02500E20066E1E
:103180000FC007F010C008F082EC17F01200016EBB
:1031900001C0C9FF2BEC19F0C5ACD1EF18F0D3EF8B
:1031A00018F0D6EF18F0010ED7EF18F0020E12004B
:1031B000076E07C08CFF8D828D8400F08D94000E09
:1031C000026E030E016EF4EC16F01200076E07C0DB
:1031D0008CFF8D928D8400F08D94000E026E030E94
:1031E000016EF4EC16F0120093809382500EC76EBD
:1031F000280EC66E000EC56E130EC86E9D869E9676
:1032000012009268850EC26EC00EC16E920EC06E24
:10321000000EC46E000EC36E1200C58AC588C5B804
:1032200014EF19F016EF19F00FEF19F01200C59A0C
:10323000C588C5B81EEF19F020EF19F019EF19F085
:103240001200C584C5B427EF19F029EF19F022EF59
:1032500019F0C75012009EA630EF19F032EF19F0A6
:103260002BEF19F09E961200000404041F0E0400B8
:0A327000040E1F0404040000120005
:020000040020DA
:08000000FFFFFFFFFFFFFFFF00
:020000040030CA
:0E0000000009191EFF0181FF0FC00FE00F4025
:00000001FF
