:020000040000FA
:0400000048EF05F0D0
:10080000004869677468004C3A20004C6F7700001C
:100810000D6E0D04D8A40FEF04F011EF04F018EFE3
:1008200004F00A500F0B80096EEC05F048EF04F05D
:10083000020E0D18D8A41FEF04F021EF04F028EFEA
:1008400004F00A500F0BC0096EEC05F048EF04F0FD
:10085000030E0D18D8A42FEF04F031EF04F038EF99
:1008600004F00A500F0B94096EEC05F048EF04F009
:10087000040E0D18D8A43FEF04F041EF04F048EF48
:1008800004F00A500F0BD4096EEC05F048EF04F0A9
:100890000BC008F00CC009F02DEC05F01200000EA2
:1008A000066E000E056E03500410D8B45AEF04F023
:1008B0005CEF04F084EF04F0010E076E64EF04F0C7
:1008C000D89003360436072A04AE69EF04F06BEFC4
:1008D00004F060EF04F0D890053606360350015C52
:1008E00004500258D8A077EF04F079EF04F07EEFBF
:1008F00004F00350015E0450025A0580D89004327F
:100900000332072E6BEF04F005C001F006C002F0C1
:10091000120095949282400E6EEC05F0C1EC04F04A
:1009200008C00EF009C00FF0000E0A6E070E0B6E25
:10093000080E0C6E010E08EC04F00F5009E1970E42
:100940000E5CD8A0A6EF04F0A8EF04F0B4EF04F01A
:10095000020E0A6E0B0E0B6E080E0C6E020E08ECE9
:1009600004F08C848BEF04F0020E0A6E010E0B6E05
:10097000080E0C6E020E08EC04F08C948BEF04F061
:100980001200C2B2C6EF04F0C8EF04F0C1EF04F0E9
:10099000C350C4CF0AF00B6A0AC00BF00A6A0A10EF
:1009A0000C6E0B500D6E0CC001F00DC002F0000E6D
:1009B000046E030E036E4FEC04F0FF0E01240C6E68
:1009C000FF0E02200D6E0CC008F00DC009F01200E1
:1009D000000E046E000E036E01EF05F0000E066EB1
:1009E000000E056E054A062A065009E1A50E055CB3
:1009F000D8A0FDEF04F0FFEF04F0F2EF04F0034A9B
:100A0000042A0350015C04500258D8B00AEF05F0E4
:100A10000CEF05F0EEEF04F01200000E956E000EE4
:100A2000936E000E026E140E016EE8EC04F0380EA8
:100A30006EEC05F00C0E6EEC05F0060E6EEC05F09B
:100A4000010E6EEC05F0000E026E030E016EE8EC76
:100A500004F0800E6EEC05F0120039EF05F008C0CE
:100A6000F6FF09C0F7FF0800F5505FEC05F0084AF3
:100A7000092A08C0F6FF09C0F7FF0800F550000971
:100A8000D8A445EF05F047EF05F02FEF05F0120071
:100A9000260EF66E0B0EF76E000EF86E00EE10F0DE
:100AA00010EE08F00900F5CFEEFFE550E150FAE155
:100AB000000EF86E080EF76E000189EF05F0076E64
:100AC00007C08AFF8C808C948C8200F08C92000E80
:100AD000026E030E016EE8EC04F01200076E07C010
:100AE0008AFF8C908C948C8200F08C92000E026EA7
:100AF000030E016EE8EC04F012009268850EC26EDF
:100B0000C00EC16E920EC06E000EC46E000EC36E9B
:100B10001200720ED36E0DEC05F07DEC05F089EC41
:0E0B200004F000EF00F001001F0404040404C0
:020000040020DA
:08000000FFFFFFFFFFFFFFFF00
:020000040030CA
:0E00000000091F1EFF0381FF0FC00FE00F401D
:00000001FF
